{
  "contractName": "VestingContract",
  "abi": [
    {
      "inputs": [],
      "stateMutability": "nonpayable",
      "type": "constructor"
    },
    {
      "anonymous": false,
      "inputs": [
        {
          "indexed": false,
          "internalType": "address",
          "name": "beneficiary",
          "type": "address"
        },
        {
          "indexed": false,
          "internalType": "enum VestingContract.Role",
          "name": "role",
          "type": "uint8"
        }
      ],
      "name": "BeneficiaryAdded",
      "type": "event"
    },
    {
      "anonymous": false,
      "inputs": [
        {
          "indexed": false,
          "internalType": "address",
          "name": "beneficiary",
          "type": "address"
        },
        {
          "indexed": false,
          "internalType": "uint256",
          "name": "amount",
          "type": "uint256"
        }
      ],
      "name": "TokensWithdrawn",
      "type": "event"
    },
    {
      "anonymous": false,
      "inputs": [],
      "name": "VestingStarted",
      "type": "event"
    },
    {
      "inputs": [
        {
          "internalType": "address",
          "name": "",
          "type": "address"
        }
      ],
      "name": "beneficiaries",
      "outputs": [
        {
          "internalType": "uint256",
          "name": "cliff",
          "type": "uint256"
        },
        {
          "internalType": "uint256",
          "name": "duration",
          "type": "uint256"
        },
        {
          "internalType": "uint256",
          "name": "totalTokens",
          "type": "uint256"
        }
      ],
      "stateMutability": "view",
      "type": "function"
    },
    {
      "inputs": [
        {
          "internalType": "enum VestingContract.Role",
          "name": "",
          "type": "uint8"
        }
      ],
      "name": "roleSchedules",
      "outputs": [
        {
          "internalType": "uint256",
          "name": "cliff",
          "type": "uint256"
        },
        {
          "internalType": "uint256",
          "name": "duration",
          "type": "uint256"
        },
        {
          "internalType": "uint256",
          "name": "totalTokens",
          "type": "uint256"
        }
      ],
      "stateMutability": "view",
      "type": "function"
    },
    {
      "inputs": [],
      "name": "startVesting",
      "outputs": [],
      "stateMutability": "nonpayable",
      "type": "function"
    },
    {
      "inputs": [
        {
          "internalType": "address",
          "name": "beneficiary",
          "type": "address"
        },
        {
          "internalType": "enum VestingContract.Role",
          "name": "role",
          "type": "uint8"
        }
      ],
      "name": "addBeneficiary",
      "outputs": [],
      "stateMutability": "nonpayable",
      "type": "function"
    },
    {
      "inputs": [],
      "name": "claimTokens",
      "outputs": [],
      "stateMutability": "nonpayable",
      "type": "function"
    }
  ],
  "bytecode": "0x608060405234801561000f575f80fd5b50604051806060016040528063018b820081526020016303c267008152602001603281525060015f80600281111561004a5761004961017c565b5b600281111561005c5761005b61017c565b5b81526020019081526020015f205f820151815f015560208201518160010155604082015181600201559050506040518060600160405280624f1a0081526020016301e133808152602001601981525060015f600160028111156100c2576100c161017c565b5b60028111156100d4576100d361017c565b5b81526020019081526020015f205f820151815f015560208201518160010155604082015181600201559050506040518060600160405280624f1a0081526020016301e133808152602001601981525060015f6002808111156101395761013861017c565b5b600281111561014b5761014a61017c565b5b81526020019081526020015f205f820151815f015560208201518160010155604082015181600201559050506101a9565b7f4e487b71000000000000000000000000000000000000000000000000000000005f52602160045260245ffd5b610683806101b65f395ff3fe608060405234801561000f575f80fd5b5060043610610055575f3560e01c80630156773914610059578063075b0d8a1461008b57806348c54b9d146100bd578063cd5ae44f146100c7578063deb36e32146100e3575b5f80fd5b610073600480360381019061006e919061037b565b6100ed565b604051610082939291906103be565b60405180910390f35b6100a560048036038101906100a09190610416565b610112565b6040516100b4939291906103be565b60405180910390f35b6100c5610138565b005b6100e160048036038101906100dc9190610441565b610180565b005b6100eb61024d565b005b5f602052805f5260405f205f91509050805f0154908060010154908060020154905083565b6001602052805f5260405f205f91509050805f0154908060010154908060020154905083565b5f6101423361027b565b90507f6352c5382c4a4578e712449ca65e83cdb392d045dfcf1cad9615189db2da244b338260405161017592919061048e565b60405180910390a150565b60015f826002811115610196576101956104b5565b5b60028111156101a8576101a76104b5565b5b81526020019081526020015f205f808473ffffffffffffffffffffffffffffffffffffffff1673ffffffffffffffffffffffffffffffffffffffff1681526020019081526020015f205f820154815f015560018201548160010155600282015481600201559050507f8866450f21acb2ce5308da000c0f6d4bb01845cee53c2324d03f4ab9482e97ff8282604051610241929190610528565b60405180910390a15050565b7faefb5f3f7a70c1101c87eaf0cf9d87d04788f67e3890db9ed94440d26afc64ba60405160405180910390a1565b5f805f808473ffffffffffffffffffffffffffffffffffffffff1673ffffffffffffffffffffffffffffffffffffffff1681526020019081526020015f206040518060600160405290815f82015481526020016001820154815260200160028201548152505090505f8160200151825f0151426102f8919061057c565b836040015161030791906105af565b610311919061061d565b90508092505050919050565b5f80fd5b5f73ffffffffffffffffffffffffffffffffffffffff82169050919050565b5f61034a82610321565b9050919050565b61035a81610340565b8114610364575f80fd5b50565b5f8135905061037581610351565b92915050565b5f602082840312156103905761038f61031d565b5b5f61039d84828501610367565b91505092915050565b5f819050919050565b6103b8816103a6565b82525050565b5f6060820190506103d15f8301866103af565b6103de60208301856103af565b6103eb60408301846103af565b949350505050565b600381106103ff575f80fd5b50565b5f81359050610410816103f3565b92915050565b5f6020828403121561042b5761042a61031d565b5b5f61043884828501610402565b91505092915050565b5f80604083850312156104575761045661031d565b5b5f61046485828601610367565b925050602061047585828601610402565b9150509250929050565b61048881610340565b82525050565b5f6040820190506104a15f83018561047f565b6104ae60208301846103af565b9392505050565b7f4e487b71000000000000000000000000000000000000000000000000000000005f52602160045260245ffd5b600381106104f3576104f26104b5565b5b50565b5f819050610503826104e2565b919050565b5f610512826104f6565b9050919050565b61052281610508565b82525050565b5f60408201905061053b5f83018561047f565b6105486020830184610519565b9392505050565b7f4e487b71000000000000000000000000000000000000000000000000000000005f52601160045260245ffd5b5f610586826103a6565b9150610591836103a6565b92508282039050818111156105a9576105a861054f565b5b92915050565b5f6105b9826103a6565b91506105c4836103a6565b92508282026105d2816103a6565b915082820484148315176105e9576105e861054f565b5b5092915050565b7f4e487b71000000000000000000000000000000000000000000000000000000005f52601260045260245ffd5b5f610627826103a6565b9150610632836103a6565b925082610642576106416105f0565b5b82820490509291505056fea2646970667358221220ab925e44f50862fc8e8a96be90622a18364560c2128aef4f1680346fd1e01b3664736f6c63430008150033",
  "immutableReferences": {},
  "source": "// SPDX-License-Identifier: MIT\npragma solidity ^0.8.0;\n\ncontract VestingContract {\n    // Define the roles\n    enum Role { User, Partner, Team }\n\n    // Define the vesting schedules\n    struct VestingSchedule {\n        uint256 cliff;\n        uint256 duration;\n        uint256 totalTokens;\n    }\n\n    // Mapping of beneficiaries to their vesting schedules\n    mapping(address => VestingSchedule) public beneficiaries;\n\n    // Mapping of roles to their vesting schedules\n    mapping(Role => VestingSchedule) public roleSchedules;\n\n    // Event emitted when vesting starts\n    event VestingStarted();\n\n    // Event emitted when a beneficiary is added\n    event BeneficiaryAdded(address beneficiary, Role role);\n\n    // Event emitted when tokens are withdrawn\n    event TokensWithdrawn(address beneficiary, uint256 amount);\n\n    // Initialize the contract\n    constructor()  {\n        // Set up the role schedules\n        roleSchedules[Role.User] = VestingSchedule(10 * 30 * 24 * 60 * 60, 2 * 365 * 24 * 60 * 60, 50);\n        roleSchedules[Role.Partner] = VestingSchedule(2 * 30 * 24 * 60 * 60, 1 * 365 * 24 * 60 * 60, 25);\n        roleSchedules[Role.Team] = VestingSchedule(2 * 30 * 24 * 60 * 60, 1 * 365 * 24 * 60 * 60, 25);\n    }\n\n    // Function to start vesting\n    function startVesting() public {\n        emit VestingStarted();\n    }\n\n    // Function to add a beneficiary\n    function addBeneficiary(address beneficiary, Role role) public {\n        beneficiaries[beneficiary] = roleSchedules[role];\n        emit BeneficiaryAdded(beneficiary, role);\n    }\n\n    // Function to claim vested tokens\n    function claimTokens() public {\n        // Calculate the vested tokens\n        uint256 vestedTokens = calculateVestedTokens(msg.sender);\n\n        // Transfer the vested tokens to the beneficiary\n        // NOTE: This is a placeholder, you'll need to implement the actual token transfer logic\n        // msg.sender.transfer(vestedTokens);\n\n        emit TokensWithdrawn(msg.sender, vestedTokens);\n    }\n\n    // Function to calculate vested tokens\n    function calculateVestedTokens(address beneficiary) internal returns (uint256) {\n        // Get the beneficiary's vesting schedule\n        VestingSchedule memory schedule = beneficiaries[beneficiary];\n\n        // Calculate the vested tokens based on the cliff and duration\n        uint256 vestedTokens = schedule.totalTokens * (block.timestamp - schedule.cliff) / schedule.duration;\n\n        return vestedTokens;\n    }\n}",
  "sourcePath": "C:\\Users\\Lenovo\\Desktop\\Blockchain\\contracts\\VestingContract.sol",
  "compiler": {
    "name": "solc",
    "version": "0.8.21+commit.d9974bed.Emscripten.clang"
  },
  "schemaVersion": "3.4.16",
  "updatedAt": "2024-07-28T17:25:31.247Z",
  "devdoc": {
    "kind": "dev",
    "methods": {},
    "version": 1
  },
  "userdoc": {
    "kind": "user",
    "methods": {},
    "version": 1
  }
}